:020000040800F2
:10000000D81C0020B90C0008BD0A0008BF0A00086F
:10001000C30A0008C70A0008CB0A00080000000055
:10002000000000000000000000000000CF0A0008EF
:10003000D10A000800000000D30A0008D50A000811
:10004000D30C0008D30C0008D30C0008D30C000814
:10005000D30C0008D30C0008D30C0008D30C000804
:10006000D30C0008D30C0008D30C0008D30C0008F4
:10007000D30C0008D30C0008D30C0008D30C0008E4
:10008000D30C0008D30C0008D30C0008D30C0008D4
:10009000D30C0008D30C0008D30C0008D938000892
:1000A000D30C0008D30C0008D30C0008D30C0008B4
:1000B000D30C0008913B0008D30C0008D30C0008B7
:1000C000D30C0008D30C0008D30C0008D30C000894
:1000D000D30C0008753D0008D30C0008D30C0008B1
:1000E000D30C0008D30C0008D30C0008D30C000874
:1000F000D30C0008D30C0008D30C0008D30C000864
:10010000D30C0008D30C0008D30C0008D30C000853
:10011000D30C0008D30C0008D30C0008D30C000843
:10012000D30C0008D30C0008D30C0008D30C000833
:1001300000F002F800F0B4F80AA090E8000C824445
:100140008344AAF10107DA4501D100F0A9F8AFF222
:10015000090EBAE80F0013F0010F18BFFB1A43F0A5
:1001600001031847D46B0000F46B000010F8013B4A
:100170000A4413F0030408BF10F8014B1D1108BF17
:1001800010F8015B641E05D010F8016B641E01F8C5
:10019000016BF9D1002D15D010F8014B03F00C03C1
:1001A0000C2BA1EB04040ABF10F8013BA4EB831451
:1001B000A4EB032405F1010314F8016B5B1E01F8A5
:1001C000016BF9D5914238BF10F8013BD1D370478C
:1001D0000023002400250026103A28BF78C1FBD850
:1001E000520728BF30C148BF0B6070476E2904F02A
:1001F0004980702904F09B83662906F024816529D3
:1002000006F02181672906F01E816129AFF3008085
:1002100003681B0A28BF41F08001692903F0F687B3
:10022000642903F0F387752903F0F0876F2904F040
:100230002883782904F06783E92904F0C382E4293C
:1002400004F0C082F52904F0BD82EF2904F0258373
:10025000F82904F066830368DB0928BF41F08001B8
:10026000632904F05B84732904F06084E32904F0BB
:100270006B84F32904F07084002070471FB504F0EC
:1002800061FB04000020002105F072F9401C606051
:100290000020002105F056F9E0601FBD10B510BD2B
:1002A00004F0F4FC1146FFF7E9FF00F009F804F050
:1002B0001BFD03B4FFF7F2FF03BC03F0A3FC000037
:1002C00086B002F0A7FA03F0CFFA03F07BFA10220F
:1002D0005102FE4803F080FC04229101FC4803F027
:1002E0007BFC5A21FB4802F0D5FF03F0F0FC02F042
:1002F00057FDADE302F0EAFB0021F74801F0A8FD4D
:100300004FF48071F54800F0E6FE01287BD14102F0
:10031000F24800F0E0FE012875D172E005220021CC
:10032000084602F0CAFC06220021102002F0C5FC9B
:1003300007220021202002F0C0FC082200213020EA
:1003400002F0BBFC102001231A460221009000207D
:1003500002F052FC15220221082002F0AEFC092214
:100360000221102002F0A9FC0A220221202002F022
:10037000A4FC0B220221302002F09FFC0C2202215F
:10038000402002F09AFC1020012302220421009058
:10039000002002F031FC15220421082002F08DFC1F
:1003A0000D220421102002F088FC0E2204212020BE
:1003B00002F083FC0F220421302002F07EFC102288
:1003C0000421402002F079FC11220421502002F087
:1003D00074FC12220421602002F06FFC4FF4807143
:1003E000BB4800F094FE4FF40071BC4800F073FE6F
:1003F00028B14FF48071B94800F06DFE08B901E0F2
:1004000001E08BE700BF4FF40071B44800F063FED9
:1004100000287DD14FF48071B04800F05CFE0028C8
:1004200076D002F053FB00221146182002F045FC62
:1004300001220021282002F040FC02220021382065
:1004400002F03BFC03220021482002F036FC04228B
:100450000021582002F031FC16220221002002F077
:100460002CFC17220221102002F027FC0722022177
:10047000202002F022FC08220221302002F01DFC84
:1004800010200123032202210090422002F0B4FB3D
:10049000242202214A2002F010FC10200123042211
:1004A000022100905A2002F0A7FB152202216420AD
:1004B00002F003FC18220421002002F0FEFB1922A6
:1004C0000421102002F0F9FB1A220421202002F05E
:1004D000F4FB1B220421302002F0EFFB1C2204213C
:1004E000402002F0EAFB1D220421502002F0E5FB2F
:1004F0001E220621002002F0E0FB1F220621102010
:1005000002F0DBFB20220621104602F0D6FB00E0C1
:10051000E0E121220621302002F0CFFB2222062139
:10052000402002F0CAFB23220621502002F0C5FB26
:1005300004236BA20621602002F0A2FB0CE04FF422
:100540000071664800F0C7FD28B94FF48071634818
:1005500000F0C1FD00B90BE04021604800F0BBFD98
:10056000012805D180215D4800F0B5FD0128E6D0C5
:1005700000BF02F0ABFA41F61F41312003F0D8FA78
:10058000A6E14FF40071554800F0A5FD012805D003
:100590004FF48071514800F09EFD00B999E14FF48D
:1005A00000714E4800F097FD002878D14D494E4823
:1005B000006805F0A1FE72D22021484800F08BFDB2
:1005C00000286CD01021454800F085FD002866D039
:1005D00002F07CFA4548444908605EE0002211467A
:1005E000182002F06AFB01220021282002F065FB9E
:1005F00002220021382002F060FB03220021482063
:1006000002F05BFB04220021582002F056FB252259
:100610000421002002F051FB27220421102002F0C7
:100620004CFB10200123042211460090202002F0F0
:10063000E3FA10200123082204210090282002F070
:10064000DBFA28220421302002F037FB2849264813
:10065000006805F051FE0BD822492348006805F0D8
:100660004BFD05D84FF400711C4800F034FD80B1FB
:100670004FF40071194800F02EFD012809D0202107
:10068000164800F028FD20B11021144800F023FD89
:1006900018B902F01BFA01E001E09FE700BF4FF438
:1006A00000710E4800F017FD00287DD110490E485A
:1006B000006805F021FD77D22021084800F00BFDED
:1006C000002871D01021054814E0000000100140FE
:1006D000000801406416002000040040000C0140A6
:1006E0002E2E2E0000004042981400200000904260
:1006F0000000E04100F0EFFC002867D002F0E6F9CE
:10070000D448D54908605FE000221146182002F065
:10071000D4FA01220021282002F0CFFA022200217F
:10072000382002F0CAFA03220021482002F0C5FA5C
:1007300004220021582002F0C0FA262204210020C1
:1007400002F0BBFA27220421102002F0B6FA102092
:100750000123022204210090202002F04DFA1020F3
:100760000123082204210090282002F045FA2822C3
:100770000421302002F0A1FAB849B748006805F01A
:10078000BBFD0BD8B649B448006805F0B5FC05D8E8
:100790004FF40071B34800F09EFC90B14FF400712B
:1007A000B04800F098FC00E010E0012809D02021BA
:1007B000AC4800F090FC20B11021AA4800F08BFC5E
:1007C00010B902F083F900E09EE700BF0022114655
:1007D000182002F072FA01220021282002F06DFA9E
:1007E00002220021382002F068FA0322002148206A
:1007F00002F063FA04220021582002F05EFA9A48BF
:10080000006805F0FDFA044622460B4697A102A8AF
:1008100003F0BAFB012302AA0421002002F030FAFF
:100820008D48006805F0ECFA044622460B4693A179
:1008300002A803F0A9FB012302AA0521002002F06F
:100840001FFA9148006805F0DBFA044622460B4681
:100850008EA102A803F098FB012302AA0621002022
:1008600002F00EFA8B48006805F0CAFA04462246E8
:100870000B4689A102A803F087FB012302AA0621E7
:10088000412002F0FDF92021764800F024FCD0B18F
:100890001021744800F01FFCA8B17E4801686E4822
:1008A000006805F029FC06D3774801686A480068AB
:1008B00005F022FD07D24FF40051794800F027FCE3
:1008C00002F09CFF04E04FF40051754800F01DFC5D
:1008D00057E600BF4FF48071624800F0FCFB00282F
:1008E0006AD14FF400715F4800F0F5FB002863D037
:1008F00002F0ECF841F61F41312003F019F959E0FC
:1009000029220021182002F0D8F92A2200212820CB
:1009100002F0D3F92B220021382002F0CEF92C224C
:100920000021482002F0C9F92D220021582002F0B0
:10093000C4F95C48006805F063FA044622460B4699
:1009400059A102A803F020FB012302AA02210020E2
:1009500002F096F94448006805F052FA044622462F
:100960000B4642A102A803F00FFB012302AA0321B8
:10097000002002F085F93848006805F041FA044685
:1009800022460B463DA102A803F0FEFA012302AA6B
:100990000421002002F074F94FF48071314800F016
:1009A0009AFB012805D04FF400712E4800F093FB0C
:1009B00000B900E0A4E700BF4FF48071294800F0BF
:1009C0008AFBE8BB4FF40071264800F084FBB8BBFB
:1009D00002F07CF80021384801F03AFA36E02E2285
:1009E0000021084602F069F92F220021102002F0B0
:1009F00064F930220021202002F05FF93122002129
:100A0000302002F05AF932220021402002F055F93C
:100A100033220021502002F050F9342200216020BE
:100A200002F04BF935220021702002F046F94FF414
:100A300080710C4800F04FFB38B94FF4007100E0B2
:100A400006E0084800F047FB00B100E0C7E700BF40
:100A500050E4000000009842981400200000E0419B
:100A600000004042000C0140941400206654626F64
:100A700064793A25332E316600000000426F6479B4
:100A80003A25332E316600008C140020553A253269
:100A90002E316600901400204C3A25322E3166002B
:100AA000001001408814002076616C7561626C65ED
:100AB0003A25352E3266000000040040704700BF22
:100AC000FEE700BFFEE700BFFEE700BFFEE770479E
:100AD00070477047704700000CB5002001900090EF
:100AE0006C48006840F480306A49086000BF69487B
:100AF000006800F4003000900198401C01900098BC
:100B000018B90198B0F5A06FF1D16248006800F4FF
:100B1000003010B10120009001E00020009000980A
:100B2000012843D15C48006840F010005A49086031
:100B30000846006820F0030008600846006840F09E
:100B400002000860534840685249486008464068BF
:100B500048600846406840F4806048600846406845
:100B600020F47C1048600846406840F4E810486073
:100B70000846006840F08070086000BF4548006883
:100B800000F000700028F9D04248406820F00300CF
:100B9000404948600846406840F00200486000BF95
:100BA0003C48406800F00C000828F9D10CBD10B595
:100BB000FFF792FF10BD10B53648006840F0010005
:100BC0003449086008464068344908403149486063
:100BD00008460068324908402E4908600846006807
:100BE00020F4802008600846406820F4FE00486039
:100BF0004FF41F008860FFF7DAFF4FF000602949CB
:100C0000086010BD10B5002100200022214B5B6858
:100C100003F00C0121B1042906D0082928D107E0EE
:100C2000214B224C236027E01F4B204C236023E004
:100C3000184B5B6803F47010164B5B6803F480324A
:100C4000022303EB904022B9194B4343174C236016
:100C50000DE0104B5B6803F4003323B1144B4343A6
:100C6000124C236003E0104B4343104C236003E01D
:100C70000D4B0E4C236000BF00BF064B5B68C3F3F7
:100C800003130C4CE15C094B1B68CB40074C236001
:100C900010BD000000100240002002400000FFF8DC
:100CA000FFFFF6FE08ED00E000127A0000000020D1
:100CB00000093D000400002009488047094800471A
:100CC000FEE7FEE7FEE7FEE7FEE7FEE7FEE7FEE7FC
:100CD000FEE7FEE704480549054A064B7047000059
:100CE000B70B000831010008D8160020D81C0020DE
:100CF000D8180020D818002031490143314A11602A
:100D0000704770B5002100230F22C47804B32D4C26
:100D1000246804F4E064C4F5E064210AC1F104032A
:100D2000CA40447804FA03F184781440214309014D
:100D3000254C0678A155047804F01F050124AC4029
:100D400005786D11AD0005F1E025C5F8004109E019
:100D5000047804F01F050124AC401C4D0678761180
:100D600045F8264070BD1A4A0A400243154B1B1F26
:100D70001A60704739B1134A121D12680243114BB1
:100D80001B1D1A6006E00F4A121D126882430D4BAC
:100D90001B1D1A607047042808D14FF0E021096933
:100DA00041F004014FF0E022116107E04FF0E02133
:100DB000096921F004014FF0E02211617047000041
:100DC0000000FA050CED00E000E400E080E100E046
:100DD00080FFFF1F002044490860091D0860091DAD
:100DE0000860091D086041483F4914310860704798
:100DF00000213D498279002A3AD00A4612680368E8
:100E00009A430B461A600A1D126803689A430B1D29
:100E10001A60027911440A6803681A430A60324A68
:100E20000832126803689A432F4B08331A601A1D60
:100E3000126803689A432C4B0C331A604279102ACB
:100E40000ED11A1F126803681A43274B08331A6021
:100E50001A1D126803681A43234B0C331A600DE005
:100E60002149427911440A6803681A430A6005E07F
:100E7000027911440A6803689A430A6070470021A6
:100E8000016001710C214171002181717047164987
:100E9000103109680143144A10321160704701464D
:100EA0000020114A143212680A400AB1012000E001
:100EB000002070470C49143108607047014600203B
:100EC0000022094B1B6803EA0102074B14331B681D
:100ED0000B4013B10AB1012000E000207047024925
:100EE000143108607047000000040140FFFF0F004C
:100EF00010B50446CC48844208D10121042000F0FA
:100F00002DFB0021042000F029FB46E0C748844265
:100F100008D10121082000F021FB0021082000F069
:100F20001DFB3AE0C248844208D10121102000F0A4
:100F300015FB0021102000F011FB2EE0BD4884427B
:100F400008D10121202000F009FB0021202000F021
:100F500005FB22E0B848844208D10121402000F07E
:100F6000FDFA0021402000F0F9FA16E0B34884426F
:100F700008D10121802000F0F1FA0021802000F04A
:100F8000EDFA0AE0AE48844207D10121801500F055
:100F9000E5FA0021A01500F0E1FA10BD10B501211D
:100FA000084600F0DBFA0021012000F0D7FA10BD5E
:100FB0002DE9F041024600250026002000230024F0
:100FC000002791F803C00CF00F0591F803C00CF056
:100FD000100CBCF1000F03D091F802C04CEA0505DB
:100FE00091F800C0BCF1000F31D0146800202BE054
:100FF0004FF0010C0CFA00F3B1F800C00CEA030644
:101000009E4220D183004FF00F0C0CFA03F7BC4333
:1010100005FA03FC4CEA040491F803C0BCF1280F64
:1010200006D14FF0010C0CFA00FCC2F814C00AE023
:1010300091F803C0BCF1480F05D14FF0010C0CFA38
:1010400000FCC2F810C0401C0828D1D31460B1F8CD
:1010500000C0BCF1FF0F34DD546800202EE000F129
:10106000080C4FF0010808FA0CF3B1F800C00CEAC4
:1010700003069E4221D183004FF00F0C0CFA03F7B8
:10108000BC4305FA03FC4CEA040491F803C0BCF12C
:10109000280F05D100F1080C08FA0CF8C2F81480EA
:1010A00091F803C0BCF1480F07D100F1080C4FF0D4
:1010B000010808FA0CF8C2F81080401C0828CED3AA
:1010C0005460BDE8F0814FF6FF710180022181700C
:1010D0000421C17070470246002093680B400BB199
:1010E000012000E0002070470146886880B2704708
:1010F00002460020D3680B400BB1012000E0002025
:1011000070470146C86880B270470161704741610D
:1011100070470AB1016100E041617047C1607047EA
:101120004FF480320A4382618161826182698269FF
:10113000704702460020434B18684FF680731840F2
:1011400040EA021008433F4B186070473E49C861AF
:101150007047F0B50A46002300240021002500F066
:101160000046B6F1004F02D1364EF16901E0354E2E
:101170007168C0F3034583B200F44016B6F5401F12
:1011800008D121F070612F4E766826F070662D4FE1
:101190007E6012E000F48016B6F5801F06D10326AB
:1011A00006FA05F4A14341F0706106E0460D3601F0
:1011B00003FA06F6B14341F0706122B1460D3601E3
:1011C00003FA06F6314300F00046B6F1004F02D1B3
:1011D0001C4EF16101E01B4E7160F0BD30B5002284
:1011E0008B071C0F0F2303FA04F2164B08338C10E5
:1011F00053F824309343134C08348D1044F82530B1
:1012000023468C1053F824308C07240F00FA04F482
:1012100023430C4C08348D1044F8253030BD0A4966
:10122000DC3108607047000000080140000C0140FC
:10123000001001400014014000180140001C014052
:10124000002001400000014000002042DF4800680B
:1012500040F00100DD49086008464068DC4908406C
:10126000DA49486008460068DA490840D74908600A
:101270000846006820F4802008600846406820F492
:10128000FE0048604FF41F0088607047CF4909682E
:1012900021F48031CD4A11601146096821F4802182
:1012A0001160B0F5803F03D0B0F5802F0ED106E07D
:1012B000C649096841F48031C44A116007E0C34956
:1012C000096841F4A021C14A116000E000BF00BFDD
:1012D000704710B501460022002300204A11012A60
:1012E00002D1BA4C236806E0022A02D1B74C236A25
:1012F00001E0B64C636A01F01F02012494401C40D7
:101300000CB1012000E0002010BD38B50020009095
:101310000024002500BF3120FFF7DBFF05460098C1
:10132000401C00900098B0F5A06F01D0002DF2D0C5
:101330003120FFF7CEFF08B1012400E00024204651
:1013400038BD01460020A14A106820F0F80040EAAC
:10135000C10010607047A049086070470246002035
:101360009A4B586820F47C1042EA01031843974BCB
:101370005860704798490866704701460020934AB4
:10138000506820F003000843506070478F48406861
:1013900000F00C007047014600208C4A506820F095
:1013A000F00008435060704701460020874A5068AB
:1013B00020F4E06008435060704701460020834AF3
:1013C000506820F4605040EAC1005060704729B175
:1013D0007E4A527A02437D4B5A7204E07B4A527A2B
:1013E00082437A4B5A7270477B49D8310860704704
:1013F00001460020754A506820F440400843506080
:1014000070470021714A20321170704A82F8201012
:10141000012802D004280AD104E001216B4A2032BD
:10142000117005E00521694A2032117000E000BF0B
:1014300000BF70476949086070476449096A014301
:10144000624A11627047654944390860704730B597
:1014500000210022002400235C4D6D6805F00C0182
:1014600021B1042905D0082923D105E05C4D056090
:1014700022E05B4D05601FE0544D6D6805F470126D
:10148000524D6D6805F48034022505EB92421CB97B
:10149000544D554305600BE04C4D6D6805F4003527
:1014A0001DB1504D5543056002E04D4D554305605B
:1014B00002E04B4D056000BF00BF444D6D6805F074
:1014C000F0010909484D6B5C0568DD4045603F4D02
:1014D0006D6805F4E061090A434D6B5C4568DD40C9
:1014E00085603A4D6D6805F46051C90A3E4D6B5CEC
:1014F0004568DD40C560354D6D6805F44041890B98
:101500003A4D6B5CC568B5FBF3F5056130BD29B19B
:101510002E4A526902432D4B5A6104E02B4A52690C
:1015200082432A4B5A61704729B1284A9269024383
:10153000264B9A6104E0254A92698243234B9A61C3
:10154000704729B1214AD2690243204BDA6104E095
:101550001E4AD26982431D4BDA61704729B11B4A8A
:10156000D2680243194BDA6004E0184AD268824319
:10157000164BDA60704729B1144A12690243134BC3
:101580001A6104E0114A12698243104B1A617047D4
:1015900012494039086070470F49C86470470B49C9
:1015A000C87170470948406A40F080700749486236
:1015B000704701460020054A92680A400AB101209E
:1015C00000E0002070470149887270470010024017
:1015D0000000FFF8FFFFF6FE000042428004424296
:1015E00000127A0000093D001400002024000020B1
:1015F00010B50446FE48844208D10121C014FFF70B
:10160000ADFF0021E014FFF7A9FFC4E0B4F1804F63
:1016100008D101210846FFF7AEFF00210120FFF7A6
:10162000AAFFB8E0F348844208D101210220FFF765
:10163000A2FF00210220FFF79EFFACE0EE488442AB
:1016400008D101210420FFF796FF00210420FFF7B5
:1016500092FFA0E0E948844208D101210820FFF769
:101660008AFF00210820FFF786FF94E0E4488442C7
:1016700008D101211020FFF77EFF00211020FFF785
:101680007AFF88E0DF48844208D101212020FFF75B
:1016900072FF00212020FFF76EFF7CE0DA488442D1
:1016A00008D101214014FFF759FF00216014FFF712
:1016B00055FF70E0D548844209D10121C804FFF7E5
:1016C0004DFF00214FF40020FFF748FF63E0D048B2
:1016D000844209D101210805FFF740FF00214FF4A2
:1016E0008010FFF73BFF56E0CA48844209D1012130
:1016F0004805FFF733FF00214FF40010FFF72EFFDE
:1017000049E0C548844208D101214020FFF733FF5A
:1017100000214020FFF72FFF3DE0C048844208D160
:1017200001218020FFF727FF00218020FFF723FF02
:1017300031E0BB48844208D101218015FFF71BFF2F
:101740000021A015FFF717FF25E0B648844209D114
:1017500001210804FFF702FF00214FF48030FFF75A
:10176000FDFE18E0B048844209D101214804FFF78A
:10177000F5FE00214FF40030FFF7F0FE0BE0AB4820
:10178000844208D101218804FFF7E8FE00214FF4CC
:101790008020FFF7E3FE10BD00220288944B9842A0
:1017A0000ED0994B98420BD0B0F1804F08D0914B9E
:1017B000984205D0904B984202D0904B984204D169
:1017C0004FF68F731A404B881A438D4B984207D0BF
:1017D0008C4B984204D04FF6FF431A40CB881A43F3
:1017E00002808B8883850B880385814B98420BD0C0
:1017F000854B984208D08B4B984205D08A4B984233
:1018000002D08A4B984201D10B7A0386012383824E
:10181000704770B5002400220023058C4FF6FE7639
:1018200035400584028C8388048B4FF68F752C40DD
:10183000B51E2C400D882C43751E2A400D892A4365
:101840004D882A436A4DA8420BD06F4DA84208D05C
:10185000744DA84205D0744DA84202D0734DA842E1
:1018600013D14FF6F7752A404D892A434FF6FB7581
:101870002A408D882A434FF6FF652B404FF6FF55CF
:101880002B408D892B43CD892B4383800483CD88C6
:101890008586028470BD70B5002400220023058C6B
:1018A0004FF6EF7635400584028C8388048B48F62A
:1018B000FF752C404FF6FF452C400D884FF6FF7604
:1018C00006EA05252C434FF6DF752A400D8906EA06
:1018D00005152A434D8806EA05152A43444DA842BA
:1018E00002D0494DA8421DD14FF67F752A404D893F
:1018F0004FF6FF7606EA05152A434FF6BF752A40D4
:101900008D8806EA05152A434FF6FF352B404FF226
:10191000FF752B408D8906EA85052B43CD8906EAA4
:1019200085052B4383800483CD880587028470BDA1
:1019300070B5002400220023058C4FF6FF66354069
:101940000584028C8388848B4FF68F752C404FF66C
:10195000FC752C400D882C434FF6FF552A400D890D
:101960004FF6FF7606EA05252A434D8806EA052547
:101970002A431F4DA84202D0234DA8421DD14FF249
:10198000FF752A404D894FF6FF7606EA05252A4362
:101990004FF6FF352A408D8806EA05252A434EF684
:1019A000FF752B404DF6FF752B408D8906EA051516
:1019B0002B43CD8906EA05152B4383808483CD888C
:1019C0008587028470BD70B5002200230024058C39
:1019D0004EF6FF7635400584038C8488828B48F66A
:1019E000FF752A404FF6FF452A400D8820E0000091
:1019F000002C01400004004000080040000C0040A2
:101A0000001000400014004000340140004C014030
:101A1000005001400054014000180040001C0040EC
:101A200000200040004001400044014000480140C7
:101A30004FF6FF7606EA05252A434DF6FF752B4043
:101A40000D8906EA05352B434D8806EA05352B43FB
:101A5000FA4DA84202D0FA4DA84208D14BF6FF75C4
:101A60002C408D894FF6FF7606EA85152C4384803D
:101A70008283CD88A0F84050038470BD828B4FF2E2
:101A8000FF331A408283828B4FF6FF7303EA0123F0
:101A90001A4382837047F0B50C4615460022002198
:101AA0000026078C4EF6FF7C07EA0C070784828B22
:101AB000018C4FF6FF7707EA043640F6FF473A40BD
:101AC0004FF6FF7707EA05273A434FF6FF7707EA15
:101AD00003373A43D94FB8420ED0D94FB8420BD052
:101AE000B0F1804F08D0D74FB84205D0D64FB8429A
:101AF00002D0D64FB84206D14DF6FF77394046F4B2
:101B00008057394305E047F6FF57394044F4805782
:101B1000394382830184F0BD828B4FF6F3731A4000
:101B20008283828B0A4382837047F0B50C46154648
:101B3000002200210026078C4FF6FF6C07EA0C07F5
:101B40000784828B018C4FF6FF7707EA04264FF655
:101B50000C773A404FF6FF7707EA03172F433A43D3
:101B6000B64FB8420ED0B64FB8420BD0B0F1804F4E
:101B700008D0B44FB84205D0B34FB84202D0B34FEB
:101B8000B84206D14FF6FF57394046F480773943C3
:101B900005E04FF2FF57394044F4807739438283A0
:101BA0000184F0BD028B4FF2FF331A400283028B97
:101BB0004FF6FF7303EA01231A4302837047F0B51F
:101BC0000C461546002200210026078C4FF6EF7CBC
:101BD00007EA0C070784028B018C4FF6FF7707EAB0
:101BE000041640F6FF473A404FF6FF7707EA0337FF
:101BF0003A434FF6FF7707EA05273A438F4FB8423B
:101C00000ED08F4FB8420BD0B0F1804F08D08D4F1F
:101C1000B84205D08C4FB84202D08C4FB84206D1A2
:101C20004FF6DF77394046F01007394305E04FF6AD
:101C30005F77394044F01007394302830184F0BDD7
:101C4000028B4FF6F3731A400283028B0A4302831E
:101C50007047F0B50C46154600220021068C4FF661
:101C6000FE773E400684028B018C4FF60C763240A4
:101C70007E1C06EA03162E433243704EB0420ED04D
:101C80006F4EB0420BD0B0F1804F08D06D4EB042D5
:101C900005D06D4EB04202D06C4EB04206D14FF628
:101CA000FD76314044F00106314305E04FF6F5760C
:101CB000314044F00106314302830184F0BD70B528
:101CC00005460C465D4885420ED05D4885420BD0E6
:101CD000B5F1804F08D05B48854205D05A4885420F
:101CE00002D05A48854200D100E000BF208850B998
:101CF0002389A28861882846FFF7ABFFE188284640
:101D0000FFF79EFF25E0208804280AD12389A288B6
:101D100061882846FFF753FFE1882846FFF742FF16
:101D200017E0208808280AD12389A28861882846DC
:101D3000FFF7FBFEE1882846FFF7EEFE09E0238966
:101D4000A28861882846FFF7A6FEE1882846FFF7AB
:101D500095FE70BD2DE9F04105460C460026012791
:101D6000608808B9022600E00026A088012801D179
:101D7000022700E001272088A0B92389A288618872
:101D80002846FFF766FFE1882846FFF759FF2389B9
:101D90003A4631462846FFF712FFE1882846FFF70A
:101DA00001FF13E02389A28861882846FFF707FF17
:101DB000E1882846FFF7F6FE23893A463146284651
:101DC000FFF747FFE1882846FFF73AFFBDE8F081BB
:101DD0000A884B881A438B881A43CB881A430B898D
:101DE0001A434B891A438B891A43A0F84420704741
:101DF0004FF6FF71818000210180C1804180017216
:101E000070470021018041808180C1800181418132
:101E10008181C18170470021018041800121818041
:101E20000021C180018170470021018041808180B3
:101E3000C18001814181818170470000002C0140F7
:101E4000003401400004004000080040000C004045
:101E500021B1028842F00102028004E002884FF6BC
:101E6000FE731A400280704731B1B0F8442042F44A
:101E70000042A0F8442005E0B0F84420C2F30E026E
:101E8000A0F8442070471AB183890B43838102E094
:101E900083898B43838170478182704741EA0203C3
:101EA000A0F8483070471AB183890B43838102E060
:101EB00083898B438381704701894FF6F872114003
:101EC000018170470A46002101894FF68F7319403E
:101ED00011430181704730B504460D46294620461E
:101EE000FFF7F0FF208940F00700208130BD2DE989
:101EF000F04104460D4616461F46602D06D13B466E
:101F0000012231462046FFF75AFE05E03B460122FA
:101F100031462046FFF79DFE29462046FFF7D2FFB7
:101F2000208940F007002081BDE8F08130B50C46E3
:101F300000210189C9B24FF6FF7505EA0325154353
:101F400025432943018130BD2DE9F04105460E4668
:101F500017469846002443463A4631462846FFF73E
:101F6000E5FF2C894FF6F870044044F007044FF663
:101F70008F70044044F070042C81BDE8F081F0B50E
:101F800004460D4616461F463B4632462946204625
:101F9000FFF7CCFF208940F480402081F0BD01850F
:101FA000828270470A46002101884FF68F731940DC
:101FB000114301807047F0B50C4615461E460021BE
:101FC000002200230189028B038C4FF6F8773940F9
:101FD00021434FF6FC473A4040F201173A434FF68F
:101FE000DD773B404FF6FF7707EA06172F433B4369
:101FF000018102830384F0BD0A460021018B4FF664
:102000008F7319401143018370470A460021018BE9
:1020100048F6FF7319404FF6FF7303EA0223194392
:10202000018370470A460021818B4FF68F73194058
:102030001143818370470A460021818B48F6FF7364
:1020400019404FF6FF7303EA022319438183704757
:1020500021B1028842F08002028004E002884FF63B
:102060007F731A400280704721B1828842F00402D7
:10207000828004E082884FF6FB731A4082807047AA
:1020800021B1828842F00802828004E082884FF603
:10209000F7731A408280704721B1828842F00102B2
:1020A000828004E082884FF6FE731A408280704777
:1020B0000A460021018B4FF6F77319401143018343
:1020C00070470A460021018B4FF2FF7319404FF60B
:1020D000FF7303EA02231943018370470A46002174
:1020E000818B4FF6F77319401143818370470A467D
:1020F0000021818B4FF2FF7319404FF6FF7303EA03
:1021000002231943818370470A460021018B4FF651
:10211000FB7319401143018370470A460021018B6C
:102120004FF6FF3319404FF6FF7303EA02231943BA
:10213000018370470A460021818B4FF6FB731940DB
:102140001143818370470A460021818B4FF6FF338C
:1021500019404FF6FF7303EA022319438183704746
:102160000A460021018B4FF67F731940114301830A
:1021700070470A460021018BC1F30E014FF6FF7331
:1021800003EA02231943018370470A460021818B29
:102190004FF67F7319401143818370470A4600212F
:1021A000818BC1F30E014FF6FF7303EA022319433B
:1021B000818370470A460021018C4FF6FD73194058
:1021C0001143018470470A460021018C4FF6F773D2
:1021D00019401143018470470A460021018C4FF6D3
:1021E000DF7319404FF6FF7303EA021319430184AA
:1021F00070470A460021018C4FF67F7319404FF655
:10220000FF7303EA02131943018470470A46002151
:10221000018C4FF6FF5319404FF6FF7303EA022378
:102220001943018470470A460021018C4FF2FF7365
:1022300019404FF6FF7303EA0223194301847047E4
:102240000A460021018C4DF6FF7319404FF6FF73CB
:1022500003EA023319430184704730B50023012497
:102260008C40A3B2048C9C430484048C02FA01F5D4
:10227000ADB22C43048430BD30B5002304248C401F
:10228000A3B2048C9C430484048C02FA01F5ADB221
:102290002C43048430BD70B503460020002418464A
:1022A000183001258D40ACB21D8CA5431D8409B1A9
:1022B000082909D100EB6100056825F0700505606B
:1022C0000568154305600EE00D1FC5F34E05284453
:1022D000056825F4E045056005684FF6FF7606EAD7
:1022E00002263543056070BD21B1028842F002022A
:1022F000028004E002884FF6FD731A4002807047A6
:1023000021B1028842F00402028004E002884FF604
:10231000FB731A400280704721B1828842F080022C
:10232000828004E082884FF67F731A408280704773
:1023300002884FF6F7731A40028002880A4302802F
:10234000704782884FF68F731A40828082880A43D2
:102350008280704702894FF6F8731A400281028921
:102360000A430281704702894FF67F731A40028147
:1023700002890A43028170478184704781857047D2
:10238000818670470187704781877047A0F84010A9
:10239000704702884FF6FF431A40028002880A43C2
:1023A000028070470146888E70470146088F70474B
:1023B0000146888F70470146B1F8400070470146DA
:1023C000888C70470146088D704702460020138AAA
:1023D0000B400BB1012000E000207047CA4302828D
:1023E000704730B50246002000230024158A05EA14
:1023F0000103958905EA010413B10CB1012000E045
:10240000002030BDCA4302827047000010B5044668
:10241000FB48844209D101218803FFF79FF800217E
:102420004FF48040FFF79AF832E0F648844209D131
:1024300001214804FFF79FF800214FF40030FFF717
:102440009AF825E0F048844209D101218804FFF779
:1024500092F800214FF48020FFF78DF818E0EB4848
:10246000844209D10121C804FFF785F800214FF407
:102470000020FFF780F80BE0E548844208D10121F5
:102480000805FFF778F800214FF48010FFF773F884
:1024900010BD2DE9F04786B005460E460024A24641
:1024A00000BFA1460027B08900B100BF2F462C8A8B
:1024B0004CF6FF700440F08804432C82AC894EF641
:1024C000F3100440B08831890843718908430443FC
:1024D000AC81AC8A4FF6FF400440B0890443AC8223
:1024E00001A8FEF7B4FFC648874202D1DDF810A06C
:1024F00001E0DDF80CA0A88900F4004040B10AEB2F
:10250000CA0000EB0A1031684900B0FBF1F807E09F
:102510000AEBCA0000EB0A1031688900B0FBF1F841
:102520006420B8FBF0F004012009642101FB10894C
:10253000A88900F4004040B1322000EBC900B0FB94
:10254000F1F000F00700044308E0322000EB09102E
:102550006421B0FBF1F000F00F0004432C8106B0C1
:10256000BDE8F0874FF41651016000218180C180E1
:1025700001810C21418100218181704710B5024603
:102580000020108A4FF2FF0318400B884C88234329
:102590008C882343CC8823431843108210BD00212C
:1025A000018041808180C180704721B1828942F4DD
:1025B0000052828104E082894DF6FF731A408281C5
:1025C0007047F0B50346002400260025002040F6A1
:1025D0006A17B94200D100BF1846C1F3421401F096
:1025E0001F06012707FA06F5012C01D10C3004E083
:1025F000022C01D1103000E014301AB107682F43CB
:10260000076002E00768AF430760F0BD1AB1838A34
:102610000B43838202E0838A8B4383827047028A62
:102620004FF6F0731A400282028A0A430282704710
:1026300082894FF2FF731A40828182890A43828124
:10264000704721B1828942F00202828104E08289CE
:102650004FF6FD731A4082817047028A4FF6DF738E
:102660001A400282028A0A430282704721B1028A1A
:1026700042F48042028204E0028A4BF6FF731A4061
:1026800002827047C1F30802828070470146888841
:10269000C0F308007047818941F0010181817047D2
:1026A000028BD2B20283028B42EA0122028370477C
:1026B000028B02F47F420283028B0A43028370473B
:1026C00021B1828A42F02002828204E0828A4FF69F
:1026D000DF731A408282704721B1828A42F0100271
:1026E000828204E0828A4FF6EF731A40828270473A
:1026F00021B1828A42F00802828204E0828A4FF687
:10270000F7731A408282704721B1828942F40042F5
:10271000828103E08289C2F30E028281704721B177
:10272000828A42F40062828204E0828A4FF2FF735E
:102730001A4082827047828A4FF6FB731A40828267
:10274000828A0A438282704721B1828A42F0020261
:10275000828204E0828A4FF6FD731A4082827047BB
:1027600002460020B1F5007F00D100BF13880B4066
:102770000BB1012000E00020704701F40072B2F5B7
:10278000007F00D100BFCA430280704770B5024687
:10279000002400230025002040F66A16B14200D133
:1027A00000BFC1F3421501F01F03012606FA03F32F
:1027B000012D02D19689334006E0022D02D1168AFE
:1027C000334001E0968A33400C12012606FA04F4E5
:1027D0001688344013B10CB1012000E0002070BD18
:1027E00010B50022002340F66A14A14200D100BFB8
:1027F0000A1201249440A3B2DC43048010BD0000FF
:10280000003801400044004000480040004C0040B7
:102810000050004010B56FF00400FEF7BCFA2E48DF
:1028200000682E49B0FBF1F02D4908700846007889
:1028300000EB4001C1EBC0104FF6FF7101EAC00090
:102840002849088010BD0146254A12784A434FF0B6
:10285000E0235A6100229A611A46126942F001028D
:102860001A6100BF4FF0E022106900F001021AB1B6
:1028700000F48032002AF5D04FF0E022126922F0F5
:1028800001024FF0E0231A6100229A61704701466D
:10289000144A12884A434FF0E0235A6100229A6199
:1028A0001A46126942F001021A6100BF4FF0E0229D
:1028B000106900F001021AB100F48032002AF5D04C
:1028C0004FF0E022126922F001024FF0E0231A617A
:1028D00000229A61704700000000002000127A0078
:1028E000280000202A00002010B52021F948FEF71A
:1028F0000CFC8021F748FEF708FC8021F548FEF724
:1029000006FC2021F348FEF702FC10BD10B5202183
:10291000F048FEF7FAFB8021EE48FEF7F8FB802135
:10292000EC48FEF7F2FB10BD10B52021E948FEF798
:10293000ECFB2021E748FEF7EAFB10BD2DE9F04152
:1029400005462C462021E348FEF7E1FB002619E06E
:10295000274607F08007802F04D18021DD48FEF74D
:10296000D4FB03E08021DB48FEF7D1FB6006040EB8
:102970002021D848FEF7C9FB2021D648FEF7C7FB27
:10298000701CC6B2082EE3DBBDE8F08110B504462A
:10299000FFF7AAFF7820FFF7D1FFFFF7C5FF002060
:1029A000FFF7CCFFFFF7C0FF2046FFF7C7FFFFF799
:1029B000BBFFFFF7ABFF10BD10B50446FFF794FF58
:1029C0007820FFF7BBFFFFF7AFFF4020FFF7B6FF10
:1029D000FFF7AAFF2046FFF7B1FFFFF7A5FFFFF7BC
:1029E00095FF10BD70B504460D461DB1E0B2FFF76E
:1029F000E3FF02E0E0B2FFF7C9FF70BD70B5064625
:102A0000002418E004F1B0000021FFF7EBFF0021E3
:102A10000846FFF7E7FF00211020FFF7E3FF00253E
:102A200005E001213046FFF7DDFF681CC5B2802DAF
:102A3000F7DB601CC4B2082CE4DB70BD06E041F695
:102A4000650100E0491E0029FCD1401E0028F6D196
:102A50007047014605E0002001E0421CD0B27B280F
:102A6000FBDB0A1EA1F10101F5D1704770B50446E8
:102A70000D4605F1B0000021FFF7B4FF102141EA37
:102A800014100021FFF7AEFF04F00F000021FFF744
:102A9000A9FF70BD10B500218D20FFF7A3FF002115
:102AA0001420FFF79FFF0021AF20FFF79BFF10BD11
:102AB00010B500218D20FFF795FF00211020FFF7B2
:102AC00091FF0021AE20FFF78DFF10BD70B50024EF
:102AD00018E004F1B0000021FFF784FF0021084650
:102AE000FFF780FF00211020FFF77CFF002505E0A5
:102AF00001210020FFF776FF681CC5B2802DF7DBAF
:102B0000601CC4B2082CE4DB70BD70B5002418E072
:102B100004F1B0000021FFF765FF00210846FFF730
:102B200061FF00211020FFF75DFF002505E0012176
:102B30000846FFF757FF681CC5B2802DF7DB601C05
:102B4000C4B2082CE4DB70BD2DE9F04707460E4601
:102B50009046994600250024A8F12000C5B27F2F99
:102B600002DD0027B01CC6B2B9F1100F24D13146E6
:102B70003846FFF77BFF002408E004EB0511564AB6
:102B8000505C0121FFF72EFF601CC4B2082CF4DB5F
:102B9000701CC1B23846FFF769FF002409E004EB5E
:102BA000051108314C4A505C0121FFF71BFF601CE6
:102BB000C4B2082CF3DB12E031463846FFF756FF6B
:102BC00000240AE005EB4501444A02EB4101085D9F
:102BD0000121FFF707FF601CC4B2062CF2DBBDE841
:102BE000F08710B50246012000E050430B1EA1F112
:102BF0000104E1B2F9D110BD2DE9FF5F074691460E
:102C00001E460E9D4FF0000A002435E0301B401E8A
:102C1000C1B20A20FFF7E5FFB9FBF0F00A21B0FBD3
:102C2000F1F201FB1208BAF1000F14D1701EA0429C
:102C300011DDB8F1000F0CD1AB4605EBDB7149108B
:102C400001FB0471C8B22B4620220199FFF77CFFDB
:102C500010E04FF0010AAB4605EBDB71491001FBB8
:102C60000471C8B208F13001CAB22B460199FFF7CE
:102C70006BFF00BF601CC4B2B442C7DBBDE8FF9F5E
:102C80002DE9F04104460F461546984600260FE010
:102C9000AA5D434639462046FFF756FF04F1080077
:102CA000C4B2782C02DD0024B81CC7B2701CC6B2B6
:102CB000A85D0028ECD1BDE8F0812DE9F041804607
:102CC0000E461546002731464046FFF7CFFE00244A
:102CD00011E0000000080140726600084A64000824
:102CE000734A02EB8511085D0121FFF77BFE781C1A
:102CF000C7B2601CC4B2102CF2DB701CC1B24046DB
:102D0000FFF7B4FE00240CE06900491C684A02EB9E
:102D10004111085D0121FFF765FE781CC7B2601CF8
:102D2000C4B2102CF0DBBDE8F0812DE9F05F06465F
:102D30000F4690461C46DDF828A04FF0000BE11727
:102D400004EB5171C910A4EBC10131B92046E11760
:102D500004EB5171C1F3C70506E02046E11704EB0F
:102D60005171C910491CCDB23D4615E02946304687
:102D7000FFF77CFEB1460BE059460BF1010B1AF848
:102D800001000121FFF72EFE09F1010000F0FF090B
:102D9000C145F1DB681CC5B2A542E7DBBDE8F09F89
:102DA00008B501210420FEF7BFFBA020ADF800000C
:102DB00010208DF8030003208DF8020069463D487D
:102DC000FEF7F6F8A0213B48FEF79FF94FF4C870D4
:102DD000FFF75DFD0021AE20FFF704FE002108464D
:102DE000FFF700FE00211020FFF7FCFD002140202E
:102DF000FFF7F8FD0021B020FFF7F4FD002181204E
:102E0000FFF7F0FD0021FF20FFF7ECFD0021A120DE
:102E1000FFF7E8FD0021A620FFF7E4FD0021A82030
:102E2000FFF7E0FD00213F20FFF7DCFD0021C82077
:102E3000FFF7D8FD0021D320FFF7D4FD002108467D
:102E4000FFF7D0FD0021D520FFF7CCFD0021802029
:102E5000FFF7C8FD0021D820FFF7C4FD00210520A1
:102E6000FFF7C0FD0021D920FFF7BCFD0021F120B4
:102E7000FFF7B8FD0021DA20FFF7B4FD0021122092
:102E8000FFF7B0FD0021DB20FFF7ACFD0021302073
:102E9000FFF7A8FD00218D20FFF7A4FD00211420DD
:102EA000FFF7A0FD0021AF20FFF79CFD08BD00004B
:102EB0002C0000200008014008B501210420FEF785
:102EC00033FB4FF4C050ADF8000010208DF8030024
:102ED00003208DF802006946EB48FEF769F80020F0
:102EE000EA490860EA49C1F8B00108BD10B5E648F2
:102EF000001D006820F47020E349091D08600846A1
:102F0000006840F4403008600120E049091D086075
:102F1000DF49C1F8AC010520FFF795FC0020DB4933
:102F2000091D08600520FFF78EFC0020D849C1F874
:102F3000AC0110BD10B5D448001D006820F470200D
:102F4000D149091D08600846006840F44030086017
:102F50000020CE490860CE49C1F8B0010520FFF736
:102F600072FC0120C9490860C949C1F8B0010520B7
:102F7000FFF769FC10BD70B500250024C248001D94
:102F8000006820F47020C049091D086008460068E8
:102F900040F4002008600120BC49091D086005209C
:102FA000FFF751FC0120BA49C1F8AC010520FFF739
:102FB0004AFC09E00520FFF746FCB4487C3800686D
:102FC00000B903E0601CC4B2C82CF3DB00BFC82CFE
:102FD00003DBFFF7AFFF002500E001250020AB4930
:102FE0000860284670BD10B50020A8490860A648B2
:102FF000001D006820F47020A349091D08600846E0
:10300000006840F4403008600020A149C1F8B001D8
:103010000520FFF718FC01209C4908600520FFF7F8
:1030200012FC00209A49C1F8AC0110BD10B5002077
:10303000964908609448001D006820F47020924969
:10304000091D08600846006840F44030086001200F
:103050008F49C1F8B0010520FFF7F5FB01208B492E
:1030600008600520FFF7EFFB00208949C1F8AC019B
:1030700010BD70B50446002500268348001D006879
:1030800020F470208049091D08600846006840F45B
:103090004030086000207D49086014E0E0097B4969
:1030A000091D08606006040E01207949C1F8AC01D1
:1030B0000520FFF7C8FB0020744908600520FFF7D2
:1030C000C2FB681CC5B2082DE8DBFFF754FF0646BB
:1030D000304670BD70B5002500246B48001D0068A7
:1030E00020F470206849091D08600846006840F413
:1030F0000020086016E00020644908600520FFF702
:10310000A2FB01206249C1F8AC016006040E5F48D1
:103110007C38006808B1601CC4B20520FFF793FB3F
:10312000681CC5B2082DE6DBFFF780FF204670BDA6
:10313000F0B504460D46002080EA4406F0B20021B6
:103140000BE000F0800626B1072686EA4006F0B2C2
:1031500001E04606300E4E1CF1B20829F1DB684052
:1031600000210BE000F0800626B1072686EA400623
:10317000F0B201E04606300E4E1CF1B20829F1DB38
:1031800012E012F8016B704000210BE000F08006A5
:1031900026B1072686EA4006F0B201E04606300E68
:1031A0004E1CF1B20829F1DB1E1EA3F10107BBB2D0
:1031B000E7D1F0BD2DE9F04705460E461746984683
:1031C00043463A4631462846FFF7B2FF8146FFF7AD
:1031D0008DFE002141EA4501C8B2FFF74AFF10B950
:1031E0000020BDE8F0873046FFF743FF08B9002014
:1031F000F7E7002407E0385DFFF73BFF08B9002040
:10320000EFE7601CC4B24445F5DB4846FFF731FFE9
:1032100008B90020E5E7FFF78DFE0120E1E72DE981
:10322000F04104460F4615469846FFF75FFE002121
:1032300041EA4401C8B2FFF71CFF10B90020BDE805
:10324000F0813846FFF715FF08B90020F7E7FFF7D0
:103250004DFE012101EB4401C8B2FFF70AFF08B996
:103260000020ECE708F0FF0605E0FFF733FF2870C9
:103270006D1C701EC6B2002EF7DCFFF72BFFFFF7A8
:1032800059FE0120DBE7000000080140AC012142AB
:1032900000002142F8B504460D46002684B1257091
:1032A000FE4800688047207802236A462E21FC4FA2
:1032B0003F68B84720789DF80010884200D1012669
:1032C0003046F8BD2DE9FC5F824600200190BAF13E
:1032D000000F25D09AF8000002236A460621F04C20
:1032E0002468A047E0B1012001909DF801B09DF84D
:1032F000000040EA0B200FFA80FB584602F080FBEA
:1033000006460022E74B02F023FA04464FF06632ED
:10331000E54B02F08BFC804602F040F9CAF804004D
:103320000198BDE8FC9F2DE9FC5F824600200190DA
:10333000BAF1000F25D09AF8000002236A4607214F
:10334000D74C2468A047E0B1012001909DF801B05E
:103350009DF8000040EA0B200FFA80FB584602F06F
:103360004FFB06460022CF4B02F0F2F904464FF025
:103370006632CD4B02F05AFC804602F00FF9CAF8D3
:1033800008000198BDE8FC9F2DE9FC5F8246002003
:103390000190BAF1000F25D09AF8000002236A4686
:1033A0000821BF4C2468A047E0B1012001909DF89E
:1033B00001B09DF8000040EA0B200FFA80FB584650
:1033C00002F01EFB06460022B64B02F0C1F904468D
:1033D0004FF06632B44B02F029FC804602F0DEF872
:1033E000CAF80C000198BDE8FC9FF8B5044600251A
:1033F000002000903CB302236A462421AB4E36687D
:10340000B04700B3AA48216902F0AAFE064602F0BE
:1034100053FEC0B28DF80000A548216902F0A0FE5D
:10342000064602F049FE000A8DF801004FF47A705A
:10343000FFF72DFA02236A46242100209B4E3668AE
:10344000B04700B101252846F8BD2DE9F04F8BB0FB
:1034500004469849606802F04FFE16D295496068AC
:1034600002F07CFF079002F0CBFC8246924A934B1D
:1034700002F0DEFA0746924A924B02F0C1F8CDE91B
:10348000080102F08BF805462CE08A49606802F0DA
:1034900065FF079002F0B4FC07468B4A8B4B02F0A5
:1034A000C7FA8246864A874B02F0AAF8CDE908019E
:1034B00002F074F805467F49606802F04FFF0790FC
:1034C00002F09EFC824A834BCDE9080102F0B0FA7B
:1034D00007467B4A5242804B02F092F8824602F045
:1034E0005DF881462946A06802F006FE33D22946DF
:1034F000A06802F033FF074602F082FCCDE902012A
:10350000606802F07DFC8246744A754B02F090FAC6
:103510000746744A744B02F073F8CDE90001DDE907
:10352000022302F085FACDE906017048006802F036
:1035300067FC07464FF066326D4B02F061F8CDE94B
:103540000401DDE9062302F05BF8CDE9080102F091
:1035500025F8064666E04846A16802F0CDFD33D264
:103560004946A06802F0FAFE074602F049FCCDE9A0
:103570000201606802F044FC07465E4A5E4B02F0BE
:1035800057FA82465D4A5E4B02F03AF8CDE90001F7
:10359000DDE9022302F04CFACDE906015348006848
:1035A00002F02EFC07464FF06632564B02F028F828
:1035B000CDE90401DDE9062302F022F8CDE9080196
:1035C00001F0ECFF06462DE02946A06802F0C6FE99
:1035D00083462946484602F0C1FE5946039002F050
:1035E000BFFD824602F00CFC07463A460B4600201F
:1035F000454902F0ADF8CDE906013C48006802F00B
:10360000FFFB07464FF06632394B01F0F9FFCDE979
:103610000401DDE9062301F0F3FFCDE9080101F023
:10362000BDFF064630460BB0BDE8F08F2DE9F043F4
:1036300006468846464501DDBDE8F083334850F82C
:103640002670344645461EE000E06D1E2F4850F8B7
:103650002500B84201DBAC42F7DB00E0641C2B48DC
:1036600050F82400B84201DCAC42F7DBAC420ADA85
:10367000264850F8249050F82500244941F82400A9
:10368000084640F82590AC42DED1204850F824008E
:103690001E4941F8260008463AE000007C1400204C
:1036A00080140020000049406612714084140020FC
:1036B00000FF7F470000C841022B8716D9CEC73FC5
:1036C00014AE47E17A5440406ABC74931804B63F84
:1036D0009A9999999999B93F856B414026AD6ADCD1
:1036E000AA0A963F774A23402FA7E13F881400207B
:1036F00066264240437C83D6935E633F1BAC866460
:10370000CB89EA3F666642400000E03FD0140020CB
:1037100040F82470611E3046FFF788FF4146601C68
:10372000FFF784FF00BF87E710B504462148046017
:103730000020214908600920204908600EE01F4848
:103740000068401E1B4951F820001C4A126841F8CD
:1037500022001A480068401E18490860174800688F
:103760000028ECDC0A210120FFF760FF012013494B
:1037700008600FE00F48114A126850F822100E48F6
:10378000006802F069FB0C4908600C480068401CA6
:103790000A490860094800680928EBDB4FF08241BC
:1037A0000548006802F0C6FB054908600846006845
:1037B00010BD0000A81400206C1400207814002014
:1037C0007014002008B501210C20FDF7ADFE4FF468
:1037D0007E70ADF8000048208DF803006946CB48A4
:1037E000FDF7E6FB4FF40040ADF8000048208DF8EF
:1037F00003006946C648FDF7DBFB08BD10B54FF472
:103800008071C348FDF781FC4FF4FA70FFF73FF871
:103810004FF48071BE48FDF77AFC6420FFF737F85B
:103820004FF48071BA48FDF770FC4FF4FA70FFF75F
:103830002EF84FF48071B648FDF769FC6420FFF75D
:1038400026F84FF48071B248FDF75FFC4FF4FA7030
:10385000FFF71DF84FF48071AD48FDF758FC4FF4A9
:103860007A60FFF714F810BD0EB501210846FDF788
:103870005BFE06210120FDF7B1FC07210120FDF7C9
:10388000ADFC4020019001208DF80A0000208DF849
:1038900008000C208DF8090001A8FDF7A9FA802086
:1038A000019001208DF80A0000208DF808000C20FE
:1038B0008DF8090001A8FDF79BFA17208DF800008C
:1038C00001208DF8030000208DF801008DF8020022
:1038D0006846FDF716FA0EBD2DE9F0414020FDF7D0
:1038E000EDFA00287ED06420FEF7D1FF4FF48071FE
:1038F0008648FDF7F0FBE8B940218448FDF7EBFB73
:10390000C0B920218148FDF7E6FB98B981480068DD
:1039100002F076FA0646804A804B02F087F90446A8
:1039200001F03CFE7B4908607D480068C0437D494A
:10393000C1F8B4014FF480717448FDF7CCFBB8B9FD
:1039400040217248FDF7C7FB90B910216F48FDF781
:10395000C2FB68B94FF07E516E48006802F0FEFC71
:103960006C4908606E480068C0436E49C1F8B401F4
:103970004FF400716548FDF7AEFBB8B920216348EC
:10398000FDF7A9FB90B940216048FDF7A4FB68B999
:103990004FF07E516448006802F0E0FC6249086024
:1039A0005F480068C0435F49C1F8B4014FF400713B
:1039B0005648FDF790FBC8B910215448FDF78BFB22
:1039C000A0B940215148FDF786FB78B94FF07E51F0
:1039D0005648006802F0C2FC54490860504800682C
:1039E000C04300E005E04F49C1F8B4014020FDF7B5
:1039F00076FA8020FDF762FA00287DD06420FEF779
:103A000046FF4FF480714148FDF765FBE8B980211E
:103A10003E48FDF760FBC0B920213C48FDF75BFB49
:103A200098B93C48006802F0EBF906463A4A3B4B2D
:103A300001F0E6FD044601F0B1FD36490860384862
:103A40000068C0433749C1F8B4014FF480712F4872
:103A5000FDF741FBB8B980212C48FDF73CFB90B93C
:103A600010212A48FDF737FB68B94FF07E512948ED
:103A7000006802F0F1F92749086029480068C0434E
:103A80002849C1F8B4014FF400712048FDF723FB29
:103A9000B8B920211D48FDF71EFB90B980211B48B5
:103AA000FDF719FB68B94FF07E511F48006802F01E
:103AB000D3F91D4908601A480068C0431949C1F884
:103AC000B4014FF400711148FDF705FBC8B910218E
:103AD0000E48FDF700FBA0B980210C48FDF7FBFA6A
:103AE00078B94FF07E511148006802F0B5F90F49DE
:103AF00008600B48006800E006E0C0430949C1F8CF
:103B0000B4018020FDF7EBF9BDE8F081000C014025
:103B100000080140881400209A9999999999B93F11
:103B2000B4012242000022428C1400209014002094
:103B30007FB505460C4601210220FDF702FD4FF43A
:103B4000A060FDF7D9F8ADF80850ADF804400020AA
:103B5000ADF80600ADF80A0001A91B48FDF71CFEF0
:103B6000012211461848FEF78EF91D208DF800003D
:103B700002208DF801008DF8020001208DF803006D
:103B80006846FDF7BEF801210F48FEF761F97FBDD9
:103B900010B501210C48FEF724FCA0B101210A4810
:103BA000FEF730FC0948FFF78DFB0848FFF7BBFB29
:103BB0000648FFF74AFC0649086008460068FFF718
:103BC000B3FD0449086010BD0004004064160020E5
:103BD0009414002098140020F8B506460C461546AB
:103BE00001212846FDF7A0FCADF8004010208DF81B
:103BF000030003208DF8020069463046FDF7D8F92E
:103C0000F8BD0000014600BF70472DE9F0410546B0
:103C10000E46174600242AE0012D0BD1315DB54830
:103C2000FEF730FD00BF8021B248FEF799FD012864
:103C3000F9D11AE0022D0BD1315DAF48FEF722FD1C
:103C400000BF8021AC48FEF78BFD0128F9D10CE0C4
:103C5000032D0AD1315DA948FEF714FD00BF802174
:103C6000A648FEF77DFD0128F9D1601CC4B2BC4214
:103C7000D2DBBDE8F0810FB470B59AB0054601AC57
:103C800020A800902046009A1F9900F06BF9064684
:103C9000324621462846FFF7B8FF002000901AB0B0
:103CA00070BC5DF814FB70B505460C460BE021783E
:103CB0002846FEF7E7FC00BF80212846FEF750FDAE
:103CC0000128F9D1641C20780028F0D170BD00B51E
:103CD00087B001210420FDF727FC01218803FDF7AF
:103CE00023FC18208DF81B004FF40070ADF818006D
:103CF00001208DF81A0006A98148FDF759F9042022
:103D00008DF81B000002ADF8180001208DF81A0094
:103D100006A97B48FDF74CF94FF4E13002900020F2
:103D2000ADF814000C20ADF812000020ADF8100022
:103D3000ADF80E00ADF80C0002A96E48FEF7A9FB25
:103D400001216C48FEF731FC012240F225516948FF
:103D5000FEF737FC25208DF8040001208DF80700C0
:103D600000208DF805008DF8060001A8FCF7C9FFBA
:103D700007B000BD10B540F225515E48FEF706FDC4
:103D800000287CD05B48FEF781FCC4B2312C13D1F3
:103D90005C480068C0435C49C1F8B4014FF4FA7054
:103DA000FEF775FD594A5AA10120FFF764FF574AF3
:103DB0005BA10120FFF75FFF322C13D1514800684F
:103DC000C0435149C1F8B4014FF4FA70FEF75FFDEA
:103DD0004E4A4FA10120FFF74EFF4C4A54A101204B
:103DE000FFF749FF332C13D146480068C0434649CA
:103DF000C1F8B4014FF4FA70FEF749FD434A50A1EF
:103E00000120FFF738FF414A45A10120FFF733FFAA
:103E1000342C13D13B480068C0433B49C1F8B4017E
:103E20004FF4FA70FEF733FD384A45A10120FFF741
:103E300022FF364A3EA10120FFF71DFF352C13D18A
:103E400030480068C0433049C1F8B4014FF4FA70FB
:103E5000FEF71DFD2D4A3EA10120FFF70CFF2B4A66
:103E60002FA10120FFF707FF362C15D12548006848
:103E7000C0432549C1F8B4014FF4FA7000E037E0BF
:103E8000FEF705FD214A32A10120FFF7F4FE1F4A8B
:103E900027A10120FFF7EFFE372C13D11948006846
:103EA000C0431949C1F8B4014FF4FA70FEF7EFFCB2
:103EB000164A27A10120FFF7DEFE144A18A10120AF
:103EC000FFF7D9FE382C13D10E480068C0430E49C5
:103ED000C1F8B4014FF4FA70FEF7D9FC0B4A1CA1EB
:103EE0000120FFF7C8FE094A11A10120FFF7C3FE18
:103EF00010BD000000380140004400400048004070
:103F000000080140B401224200002242A014002017
:103F100074302E7478743D22464B5722257300006E
:103F200074322E7478743D22CAC7222573000000B3
:103F300074322E7478743D22B7F12225730000008C
:103F400074302E7478743D2257585922257300001E
:103F500074302E7478743D225A5A4C222573000016
:103F6000704700001CB50C46064B7B446946009028
:103F7000204600F0B0FB04460020694600F0BEFB7E
:103F800020461CBD8F0700000FB41CB5084B06AAC5
:103F90007B4469460090059800F09DFB0446002094
:103FA000694600F0ABFB20461CBC5DF814FB00002A
:103FB0006907000070B5044685690068C10601D52F
:103FC000302600E02026C00707D070BDD4E90121CB
:103FD00030469047206A401C20626D1EF6D570BDA9
:103FE00070B5044685690078C00707D170BDD4E973
:103FF000012120209047206A401C20626D1EF6D5CA
:1040000070BD00002DE9F05F894604464FF0000ABC
:10401000DFF874B1FB44C0F820A02046E16888476F
:10402000002874D0252806D0D4E901219047206AC1
:10403000401C2062F1E700265F462046E168884781
:104040002028054607DB312D05D2781910F8200C01
:1040500008B10643F1E7B00701D526F00406C4F81D
:104060001CA00027C4F818A02A2D09D0284601F06A
:1040700061FA38B304EB8708303DC8F8185019E0EE
:1040800059F8041B204604EB87029161E1688847D8
:10409000012F054618D1E069002820DA26F0200615
:1040A0001DE0D8F8180000EB800005EB4000303828
:1040B000C8F818002046E1688847054601F03AFA3A
:1040C0000028EED1012F0AD02E2D08D12046E1681C
:1040D00088477F1C0546022F46F02006C4DBA069F6
:1040E000002803DA404246F00106A061F00701D043
:1040F00026F010066C2D0BD0682D09D04C2D39D030
:104100006A2D35D0742D35D07A2D33D016E038E0B5
:10411000E1682F4620468847B842054609D16C2FF2
:1041200026D04FF48060E168064320468847054664
:1041300004E06C2F1AD04FF4807006430DB3A5F144
:104140004100192802D8203546F400664A4629461F
:10415000204626604E46FCF749F880B101280BD076
:10416000F61D26F0070000F1080956E74020E4E7B5
:104170008020D8E70020D6E706F104094DE728465D
:1041800052E7206ABDE8F09F4A2C00007047704754
:104190007047704709684A0501D540B27047C905A4
:1041A000FCD500B2704709684A0501D5C0B2704716
:1041B000C905FCD580B2704770B50C460546012A8A
:1041C00005D02878800600D5EA69002302E00123A3
:1041D00005E05B1C934202D2E05C0028F9D1A8699B
:1041E000E618C01AA861286A184428622846FFF712
:1041F000E1FE04E0D5E9012114F8010B9047B44237
:10420000F8D32846FFF7ECFE70BD00002DE9F04121
:104210000646002410687529314616A510D0FFF710
:10422000B9FF002802DA404213A507E031688A0787
:1042300001D512A502E0490704D511A5012401E02A
:10424000FFF7B1FF00210A2206F1240709E0B0FBC5
:10425000F2FCB0FBF2F302FB1C003030785418463D
:10426000491C0028F3D123462A463046BDE8F041D8
:1042700000F0B1BB000000002D0000002B0000008A
:104280002000000011680268006A530501D508701B
:104290000AE0D30501D5088006E0130603D5C2174E
:1042A000C1E9000200E008600120704770472DE975
:1042B000FF4F0C461E464FF0FF378BB0D2E900018E
:1042C000DDF860800A908A46C1F30A5505B93D467B
:1042D000002108464FF00000BAF1000F00F4400042
:1042E00005DA00EB80004FF4400101EA50004FEA8C
:1042F0009059B9F1010F00DDB9460A9850EA4A0019
:104300000ED044F61050A5F2FF3545432F14B8F1F6
:10431000000F1ED07542291E1EDDC9F100021CE0EF
:10432000B8F1010F4FF0000001D0302103E0F2435B
:1043300005E02154401CB042FBDB30460022002146
:1043400021540B99C1F80880C1E900200FB0BDE8E5
:10435000F08FBD1B6D1CDEE74A4600DA694206A8F5
:1043600000F0FEFB06AB93E8070003AB83E8070011
:1043700050460A9900F002FD8DE80700A0F50050B4
:104380001F3800900398002D0ADD42F21F014A46B3
:104390000844002303A90390684600F06BFF09E07E
:1043A000A0F500504A461F38002303A90390684631
:1043B00000F075FF8DE807000004000C03D04FF0FB
:1043C000FF30410800E01046B8F1000F03D0002292
:1043D000009215461EE0751E05D400F0B7FA303283
:1043E00062556D1EF9D5B3460122084302D0002262
:1043F0007F1C04E02078302801D100227F1E002A93
:10440000099784D01DE0112D07DA00F09FFA3032B1
:1044100062556D1C50EA0102F5D1084302D00098A4
:10442000C8B10EE00021681E05E0235C625C6354A5
:104430002254401E491C8142F7DBAB46A81B401E9C
:104440000990002004F80B000B98099AC0F8088026
:10445000C0E9002B7AE711264FF0000857E72DE955
:10446000F04F88460446D21D22F0070191B0D1E9F1
:104470000001CDE90A0101F049F802460B98C00F8E
:1044800001D02D2007E02068810701D52B2002E014
:10449000202101EAC000032A099001D0072A05DB88
:1044A00003464146204600F0EFFA0BE120788006F3
:1044B00001D5E06900E00620B8F1650F814606D01D
:1044C000B8F1660F18D0B8F1670F70D131E0002055
:1044D000B9F1110F009001DB112301E009F1010393
:1044E0000AAA01A90CA8FFF7E2FEDDE90C7000267C
:1044F00009F10105834647E001204B4600904FF04B
:1045000000470AAA01A90CA8FFF7D1FEDDE90DB00A
:104510000C995D46002610B909F101000D18B9EBA0
:10452000050003D4C0F1FF3609F10105A5EB090030
:104530002BE0B9F1010F01DA4FF001090020B9F1C8
:10454000110F0090484601DD112300E003460AAA3E
:1045500001A90CA8FFF7ABFEDDE90C704D46002663
:104560008346207800070AD4AB4500DA5D4601A8EF
:10457000012D04DD411911F8011C302907D04F45E8
:1045800002DA17F1040F04DA012082460FE06D1EF3
:10459000EEE7002F02DCED1B3E4403E0781CA8424E
:1045A00000DD7D1CB81B00F1010A4FF000472078A8
:1045B000000703D4AA4501DB4FF0FF3A0021B7F111
:1045C000004F0DF143088DF8431024D002202B2317
:1045D000002F01DA7F422D230A21021EA0F10100E3
:1045E00000DC5FB197FBF1FC97FBF1F201FB1C7C57
:1045F00017460CF1300C08F801CDEEE7A8F10100E8
:1046000003702188090501D5452100E06521A0F14D
:10461000010800F8011C09980FA9A1EB0807FF1D6C
:1046200000B10120411901EBEA70A1693844081A70
:10463000401EA0612078C00602D42046FFF7BAFCD5
:10464000099828B1D4E901219047206A401C2062D2
:104650002078C00622D52046FFF7ACFC1EE0002ED5
:1046600004DBB34502DD01A8805D00E03020D4E921
:1046700001219047206A401C2062761CAAF10100AB
:104680005FEA000A0AD100F05DF9C0680168405C89
:10469000D4E901219047206A401C2062281EA5F120
:1046A0000105DCDC07E0D4E9012118F8010B904793
:1046B000206A401C2062381EA7F10107F3DC204667
:1046C000FFF78EFC032011B041E6000001694A1C8F
:1046D00002610878704700B58FB0CDE90131002143
:1046E000059105497944CDE9031011466846FFF765
:1046F00089FC0FB000BD0000E5FFFFFF0A6802F86B
:10470000010B0A60704700002DE9FF5F15468A46DD
:104710000446DFF8AC80F8440027D8E900103E4694
:10472000CDE9001010E03AF816106A4602A800F031
:1047300089FA411C07D02178890603D5E269391826
:1047400091420DD80744761C2078800602D5E06996
:10475000B84205DDAE42E6DB3AF816000028E2D1A9
:10476000A069C01BA0612046FFF724FCD8E9001017
:10477000CDE90010002017E03AF818106A4602A8A8
:1047800000F060FAB0F1FF3F81460BD000250DF13B
:10479000080B05E0D4E901211BF8050090476D1CCA
:1047A0004D45F7D308F10100B0428046E4DB206AB2
:1047B000384420622046FFF713FCBDE8FF9F00004D
:1047C0005A2500002DE9F0418046D21D22F0070253
:1047D0000025D2E90002F52915A614D0011E72F1B8
:1047E000000106DA0023D0EB030063EB020211A6FE
:1047F00008E0D8F800108B0701D50FA602E04907A2
:1048000001D50EA601251146002408F1240704E075
:1048100000F09CF830323A55641C50EA0102F7D19E
:104820002B46324621464046BDE8F04100F0D3B861
:10483000000000002D0000002B0000002000000000
:1048400030B4002100F1240408E002F00705D2088A
:10485000303542EA4372DB086554491C52EA0305CD
:10486000F3D10468002310A2250707D5A40600D4BD
:1048700021B1C46901230DA2641EC46130BC00F0E3
:10488000AAB810B5044621461068FFF78CFC024612
:104890002046BDE810400023D2E7D21D22F00701D8
:1048A000D1E90023CCE70000000000003000000048
:1048B000F0B40D460188090502D5214C7C4402E084
:1048C0001F4C7C440E34002100F1240608E002F065
:1048D0000F071209E75D42EA03721B097754491C6E
:1048E00052EA0307F3D102780023120704D5702D92
:1048F00006D009B1022311342246F0BC00F06BB897
:1049000001231034F8E770B504460D4621461068BF
:10491000FFF749FC024629462046BDE870400023C7
:10492000C6E7D21D22F00703D3E90023C0E70368DE
:10493000126843F0200303600823C3610023B7E734
:10494000BC230000004870479816002030B5B0F135
:104950000A024FEA900E71F100034EEA817EB0EB3D
:104960000E0061EB91014FEA101E4EEA017E10EB42
:104970000E0041EB11114FEA102E4EEA016E10EBC2
:104980000E0041EB11214FEA104E4EEA014E10EBA2
:104990000E0041EB1141401841F100014FEAD000F7
:1049A00040EA41704FEAD10110EB80054FEA8104E3
:1049B00044EA907444EB01046D1944EB0404521B67
:1049C000A3414FF0000348BF0A3200D530BD401C60
:1049D00041F1000130BD2DE9F0470D469946924660
:1049E000044600F124080168880604D5E06921F036
:1049F0001001216000E00120A84201DD471B00E01A
:104A00000027A1697A1902EB0900081AA061207831
:104A1000C00602D42046FFF7CDFA002608E0D4E90C
:104A200001211AF806009047206A401C761C20627B
:104A30004E45F4DB2078C0060AD52046FFF7BAFAC7
:104A400006E0D4E9012130209047206A401C206212
:104A5000381EA7F10107F4DC07E0D4E9012118F8BA
:104A600005009047206A401C2062281EA5F1010520
:104A7000F3DC2046FFF7B4FA2078000602D50220C6
:104A8000BDE8F0870120FBE72DE9F0411F46044611
:104A900003260168072A01F4006004DB08B116A5AB
:104AA00005E016A503E008B115A500E015A521F065
:104AB00010002060A069C01EA0610FB1401EA0615F
:104AC0002046FFF777FA4FB1D4E9012138469047E5
:104AD000206A401C2062C01C206206E0206AFAE7BF
:104AE000D4E9012115F8010B9047761EF8D2204633
:104AF000FFF776FABDE8F0814E414E006E616E0020
:104B0000494E4600696E660010B5436913B1AFF3B4
:104B1000008001E0FFF750FB012010BD127800F18A
:104B200024010A7000224A700122EDE711684FF05B
:104B3000FF32E9E710B5436913B1AFF3008001E03C
:104B4000FFF7E2FD012010BD128800F124018284EC
:104B50000022C2840122EDE711684FF0FF32E9E73D
:104B60002DE9F047814616468AB0354878440DC88D
:104B70008DE80D0032487844801C03AC0DC884E8F1
:104B80000D0041F69B300844372190FBF1F290FB79
:104B9000F1F5A5F1800501FB12041B3C02D564422E
:104BA000012000E00020DFF898A080460027FA44AA
:104BB000AAF1BE0A0EE0E0070AD03246684607EBCB
:104BC000470101230AEB810100F069FB8DE8070032
:104BD00064107F1C002CEED1194F7F44AE3F19E0CA
:104BE000E80715D007EB04100DF1180A90E80E0045
:104BF0008AE80E00C068F04201D198190890324648
:104C0000012306A903A800F04AFB03AB83E80700D1
:104C10006D10641C002DE3D14FF00103324669464C
:104C2000B8F1000F03A802D000F024FB01E000F06F
:104C300036FBC9E90001C9F808200AB0BDE8F087D1
:104C4000B021000070B516460C46054600F044F849
:104C5000036893F80101012806D0FF2C0FD8185DD6
:104C600068B101202C7070BDD3F80701324621468F
:104C700003F2071303442846BDE8704018474FF07D
:104C8000FF3070BD00487047781600207546FFF76A
:104C9000F9FFAE4605006946534620F007008546F9
:104CA00018B020B5FCF716F8BDE820404FF000061C
:104CB0004FF000074FF000084FF0000B21F0070104
:104CC000AC46ACE8C009ACE8C009ACE8C009ACE847
:104CD000C0098D467047000010B5FFF733FE001D78
:104CE00010BD00BF8D08000010B50446AFF3008072
:104CF0002046BDE81040FBF7DCBA00004FF0013C55
:104D000050F8042B51F8043B9A4221D1A2EB0C033A
:104D1000934313EACC1317D150F8042B51F8043BFA
:104D20009A4215D1A2EB0C03934313EACC130BD197
:104D300050F8042B51F8043B9A4209D1A2EB0C0322
:104D4000934313EACC13DBD04FF00000704700BF51
:104D5000D01A01BAB1FA81F101F0180122FA01F07A
:104D6000CB40C1F12001DBB2C0B2C01A2CFA01F372
:104D7000D11A914311EAC311E6D170475FEA400CA2
:104D800008BF91F0000F4FEA8C234FEAC12243EA9B
:104D900051514FEA1C5018BF00F5F0404FEA300067
:104DA00018BF41F000415FEA6C5C00F02980BCF163
:104DB000FF3F08BF40F080407047130C06BF12044D
:104DC0004FF0100C4FF0000C130E04BF12020CF148
:104DD000080C130F04BF12010CF1040C930F04BF55
:104DE00092000CF1020CD30F04BF52000CF1010C25
:104DF00011464FF00002A0F11F00A0EB0C0070471D
:104E000011F0004F08BF704731F000413FF4D5AFBB
:104E10000B0C06BF09044FF0100C4FF0000C0B0EEA
:104E200004BF09020CF1080C0B0F04BF09010CF1BF
:104E3000040C8B0F04BF89000CF1020CCB0F04BFD4
:104E400049000CF1010CCCF12003A0EB0C0022FA7C
:104E500003F302FA0CF241EA030100F1010070478A
:104E600020F07F4C80EA030023F07F47ACEB070380
:104E700003F57C5300F0004003F1FF032DE9804966
:104E80004FEA154B09B44FEA144325EA0B4E24EAC6
:104E900003480FF2042606EB132749083E785FEA21
:104EA000320203FB0667C7F5000707FB06F64FEA69
:104EB00054374FEAD64606F1020607FB066CCCF1E2
:104EC000005C4FEA1C472CEA074C07FB06F40CFB7E
:104ED00006F504EB15464FEA961634BF00204FF056
:104EE00000404FEAD13706FB07FC4FEA1C4C0CFB95
:104EF0000BF7D21B03FB0CF761EB07010CFB0EF762
:104F0000B0EB074072EB17420CFB08F734BFA2EB83
:104F10000742B2EB074261EB17414FEA0C444FEAFC
:104F2000910706FB07FC4FEA1C4C0CFB0BF7B0EBA0
:104F3000C74072EB573203FB0CF734BFA2EBC742FA
:104F4000B2EBC74261EB57310CFB0EF7B0EBC70079
:104F500072EB57720CFB08F734BFA2EBC702B2EB3F
:104F6000C70261EB5771039F4FEA816141EA9211D9
:104F700004EBCC044FEAD1374FEA826206FB07FC10
:104F800042EA90124FEA80604FEA1C4C0CFB0BF790
:104F9000D21B03FB0CF761EB07010CFB0EF7B0EB28
:104FA000074072EB17420CFB08F734BFA2EB074235
:104FB000B2EB074261EB17414FEA8C554FEA91077C
:104FC00004EB9C2406FB07FC4FEA1C4C0CFB0BF784
:104FD000B0EBC74072EB573203FB0CF734BFA2EBC8
:104FE000C742B2EBC74261EB57310CFB0EF7B0EB97
:104FF000C70072EB57720CFB08F734BFA2EBC70275
:10500000B2EBC70261EB577115EB4C254FEA81619A
:1050100041EA92114FEA82624FEAD13742EA901296
:1050200006FB07FC44F100044FEA80604FEA1C4C89
:105030000CFB0BF7D21B03FB0CF761EB07010CFB1E
:105040000EF7B0EB074072EB17420CFB08F734BFCA
:10505000A2EB0742B2EB074261EB174115EB1C15BF
:105060004FEA813141EA92414FEA823242EA90426C
:105070004FEA80304FEA0C7644F1000448EA0343DB
:105080004EEA0B484FF0000EB2EB080C71EB030731
:1050900024BF624639464EEB0E0E4FF0000B00184F
:1050A000524149414BEB0B0BB2EB080C71EB030780
:1050B0007BF1000B24BF624639464EEB0E0E4FF0DB
:1050C000000B0018524149414BEB0B0BB2EB080CA3
:1050D00071EB03077BF1000B24BF624639464EEBB0
:1050E0000E0E51EA020718BF46F0010616EB0E76C7
:1050F00055F1000254F1000103D5BDE88901BDE876
:105100000088BDE88901BDE80048B619524141EB6D
:105110000101A3F10103704780807F7E7D7C7B7A53
:105120007978777676757473727171706F6E6E6D53
:105130006C6C6B6A6A6968686766666564646363F9
:1051400062616160605F5F5E5E5D5D5C5C5B5B5A7F
:105150005A595958585757565655555554545353EC
:1051600052525251515050504F4F4F4E4E4D4D4D47
:105170004C4C4C4B4B4B4A4A4A4949494848484792
:1051800047474746464645454544444444434343D0
:105190004342424242414141002B9C4630D4770079
:1051A0002BD01CB54FEA370703B44FF010004FF077
:1051B0001001BAF1000F06D0BCF1000FDCBF40F0C7
:1051C000080040F008014FF000000FBCBDE810409F
:1051D0000BF1010BBBF1010F08BF5FEA170722BFFC
:1051E00012F1010211F101014FF0004143F10003FE
:1051F00000F0004043EA00007047F9D35708D0E7B9
:1052000046EA064613F1400F4FEA16461FDD13F13A
:10521000200FDFBF16430A46002120335B42BED079
:10522000C3F1200746EA064602FA07F74FEA164698
:1052300046EA0706C3F1200722FA03F201FA07F74C
:1052400021FA03F14FF0000342EA0702A7E746EA1A
:10525000020646EA06464FEA164646EA0106BCBF83
:1052600046EA0646360C4FF000034FF000024FF0BE
:10527000000194E72DE9804C9A46934670B491E87A
:10528000380007C831EA400C48BF34EA430C03D564
:10529000FFF7E6FDFFF780FFF0BCBDE8008C2DE9CD
:1052A000804C9A46934670B491E8380007C810F0D5
:1052B000804F08BF13F0804F03D100F005F8FFF7CF
:1052C0006BFFF0BCBDE8008C20F07F4780EA030054
:1052D00023F07F4C07EB0C03A3F57C5300F0004058
:1052E000A3F1FE0392F0000F00F0B38095F0000FE1
:1052F00000F077802DE901494FEA11404FEA14464A
:1053000021EA004800FB06FC24EA064708FB06F6F3
:1053100007FB08F800FB07F718EB06484CEB164CA8
:105320004FEA124B18EB07484FEA15464CEB174073
:1053300022EA0B4E0BFB06FC25EA06470EFB06F69F
:1053400007FB0EFE0BFB07F71EEB064E4CEB164C55
:105350004FF000061EEB074E4CEB174B18EB0B08FB
:1053600040F1000018EB0E0B58EB000840F1000074
:105370008F1A4FF000013CBFC943661B14BFB5EB49
:10538000040C00213CBFC943F61B4FEA17444EEA08
:105390008E0E27EA04454FEA1C4704FB07622CEAFD
:1053A000074C05FB07F70CFB05F604FB0CFC16EBA2
:1053B000074642EB174216EB0C4642EB1C421BEB36
:1053C000060658EB0202414146EA9E0601D5BDE8B9
:1053D0000189B619524141EB0101A3F10103BDE876
:1053E00001894FEA14454FEA114724EA054621EAAC
:1053F000074C05FB07F406FB07F70CFB06F105FB62
:105400000CFC11EB074144EB17444FEA124711EB38
:105410000C4144EB1C4422EA074C05FB07F206FB57
:1054200007F70CFB06F605FB0CFC16EB074642EBF8
:10543000174216EB0C4642EB1C456A1854F100016A
:1054400048BF7047B619524141EB0101A3F1010376
:10545000704795F0000F37D04FEA11424FEA1447DA
:1054600021EA024624EA074C02FB07F106FB07F794
:105470000CFB06F402FB0CFC14EB074441EB174158
:105480004FEA154714EB0C4441EB1C4125EA074C4D
:1054900002FB07F506FB07F70CFB06F602FB0CFC0C
:1054A00016EB074645EB174516EB0C4645EB1C4241
:1054B000121951F1000148BF7047B619524141EB32
:1054C0000101A3F1010370474FEA14454FEA114768
:1054D00024EA054621EA074C05FB07F106FB07F71E
:1054E0000CFB06F24FF0000605FB0CFC12EB07422A
:1054F00041EB174112EB0C4251EB1C4148BF704786
:10550000921841EB0101A3F101037047490050EAF1
:10551000C12018BF04204A0D18BF40F0010040F21E
:10552000FF72B2EB515F08BF40F00200012808BFD4
:105530000520704730380A2801D20120704700202A
:105540007047000010B500290AD00878002807D05D
:1055500005487844FFF7D2FB002801D0002010BD99
:105560000248784410BD000006180000FE17000035
:1055700010B500290AD00878002807D005487844DB
:10558000FFF7BCFB002801D0002010BD0248784482
:1055900010BD0000F6170000EE17000021F00042D9
:1055A000A2F16052B2F5801F01F0004328BFD2F192
:1055B0007F6C0BD95FEA001C43EAC20242EB5070D9
:1055C00018BF704728BF20F001007047B2F5801F58
:1055D000BCBF184670474FEA410C1CF5001F02D2B1
:1055E000084600F084BE70B500F0CCFA00000089D7
:1055F000FFF7F6BF4FF00040A0F5800070470000B5
:1056000010B591EA030F48BF83F0004300F1168301
:10561000841A71EB030C05D2121943EB0C03001B27
:1056200061EB0C01DFF824E14FEA1154A4EB135CA9
:105630001EEA430F18BF9EEA445F73D023EA0E03AD
:10564000DCF1200E21EA045143F4801332D322FA14
:105650000CFE10EB0E0023FA0CFE41EB0E01CCF118
:10566000200E03FA0EFE10EB0E0051F10001B1F511
:10567000801FCCF1200E32D201EB045112FA0EF24F
:10568000BDE8104058BF7047401C38BF5FEA420277
:1056900018BF7047002814BF20F0010041F100013D
:1056A0004FEA410313F5001F38BF7047A1F1C04115
:1056B00000F0B6BA012A43EB0302ACF1200CDCF196
:1056C0001F0E32BF4FF0000E23FA0CF310EB030055
:1056D00041EB0451B4EB115FD0D0A1EB045101F5C3
:1056E000801149085FEA300001EB04510ED350F1FC
:1056F000000038BF12FA0EFE08D1BDE81040C9E71D
:10570000401C38BF5FEA4202CAD1C3E7BDE810407F
:105710004FEA410313F5001F38BF7047A1F1C041A4
:1057200000F07EBA9EEA445F08D011EA5E0FBDE841
:10573000104004BF01F0004100207047BDE8104058
:1057400070B500F01FFA00BF64FBBE3E0000E0FF32
:105750002DE9C04130B4DFF8A0C23CEA111418BFF3
:105760003CEA131400F0EC8081EA03051CEA1114F2
:1057700044EAD57418BF1CEA131500F0C780A4EBE7
:1057800005044FF0004545EAC12145EAC32341EA3B
:10579000505143EA525304F17F74994204F50034A6
:1057A0004FEAC0204FEAC22208BF904200F09C801E
:1057B0004FEA13650FF24016765D4FEA134506FB7C
:1057C00005F7C7F1807706FB07F74FEAD737A7FB46
:1057D00003687642C8F58038A7FB06CE38BFA8F12B
:1057E000010807FB08E64FF0000EA6FB028CE6FB63
:1057F00003CEDCF1000CCEF1004E38BFAEF1010E4D
:10580000A6FB0C584FF000074FF00005E6FB0E8793
:10581000A1FB08C6A0FB07CE16EB0E0645F100055E
:10582000E1FB076515F1E04E7EBFA4F580345FEA29
:1058300046066D4116F1800745F100054FEA17272E
:105840004FEA066647EA0567A6F1DE46B6F1805FD5
:105850004FEA15251FD9384624F0010C05EBC47119
:10586000BCF1FE6F01EB0C1102D8F0BCBDE8008169
:1058700024425CBF01F5801E9EEAC47F02D4F0BCC6
:10588000BDE80081244238D4F0BCA1F1C041BDE89C
:10589000004100F0C5B94FEAD22242EA43524FEA32
:1058A000D323A7FB02864FEAD02040EA415007FBF2
:1058B00003661EEA0E0F4FEAD12105FB026658BFB0
:1058C000A6EB0056B6EB00564FEA520E4EEAC37EE8
:1058D00018EB0E0E56EB530EBDD518EB02085E41C9
:1058E0007F1C55F10005B6E74FF480154FF0000717
:1058F0004FF000064FF00008ADE7F0BC4FF000009D
:1059000001F1C04101F00041BDE8008111EA0C1F26
:105910000CEA131500D00CE013EA0C1F00F02580F0
:105920004FF00000F0BC81EA030101F00041BDE846
:105930000081F0BCBDE8004181EA030100F070B9CC
:10594000F0BCBDE8004170B500F01CF9097EFC3EDA
:1059500000F007B881EA03014FF0000001F00041B8
:10596000704781EA030100F05BB9F0BCBDE800417B
:105970004FF0000021497047FFFDFBF9F7F5F4F205
:10598000F0EEEDEBE9E8E6E4E3E1E0DEDDDBDAD8DA
:10599000D7D5D4D3D1D0CFCDCCCBCAC8C7C6C5C438
:1059A000C2C1C0BFBEBDBCBBBAB9B8B7B6B5B4B34F
:1059B000B2B1B0AFAEADACABAAA9A8A8A7A6A5A43A
:1059C000A3A3A2A1A09F9F9E9D9C9C9B9A999998FE
:1059D0009797969595949393929191908F8F8E8EA1
:1059E0008D8C8C8B8B8A898988888787868585842E
:1059F00084838382828181800000FF070000F87F1A
:105A000010F0004248BF4042B0FA80F310FA03F1B0
:105A10000AD0C3F11D0303F580634FEA415002EB46
:105A2000035202EBD12170474FF000007047000095
:105A3000DFF848C170B51CEA111E1EBF1CEA131521
:105A40009EEA0C0F95EA0C0F00F06F8081EA0304C8
:105A500023EA4C134EEAD47E21EA4C1141F4801122
:105A600043F48013AE44A1FB024CA0FB0365AEF1EE
:105A70007F7E361955EB0C05A1FB034C4CF100035E
:105A8000A0FB021C16EB0C06654153F10003094212
:105A900018BF46F0010613F4007F0BD14FEA033123
:105AA0004FEA0530340341EA155140EA16506FF0D1
:105AB00003020AE04FEAC3214FEAC520F40241EA9B
:105AC000555140EA56506FF0020202EB2E4201EBB4
:105AD000025585EACE710AD05FEA440C18BF24F063
